{
  "contractName": "matches",
  "abi": [
    {
      "inputs": [],
      "stateMutability": "nonpayable",
      "type": "constructor"
    },
    {
      "inputs": [
        {
          "internalType": "uint256",
          "name": "",
          "type": "uint256"
        }
      ],
      "name": "matchIds",
      "outputs": [
        {
          "internalType": "uint256",
          "name": "",
          "type": "uint256"
        }
      ],
      "stateMutability": "view",
      "type": "function",
      "constant": true
    },
    {
      "inputs": [
        {
          "internalType": "uint256",
          "name": "",
          "type": "uint256"
        }
      ],
      "name": "results",
      "outputs": [
        {
          "internalType": "uint256",
          "name": "",
          "type": "uint256"
        }
      ],
      "stateMutability": "view",
      "type": "function",
      "constant": true
    },
    {
      "inputs": [
        {
          "internalType": "uint256",
          "name": "",
          "type": "uint256"
        }
      ],
      "name": "schedule",
      "outputs": [
        {
          "internalType": "uint256",
          "name": "matchId",
          "type": "uint256"
        },
        {
          "internalType": "string",
          "name": "matchDesc",
          "type": "string"
        },
        {
          "internalType": "string",
          "name": "matchFormat",
          "type": "string"
        },
        {
          "internalType": "uint256",
          "name": "startDate",
          "type": "uint256"
        },
        {
          "internalType": "uint256",
          "name": "endDate",
          "type": "uint256"
        },
        {
          "components": [
            {
              "internalType": "uint256",
              "name": "teamId",
              "type": "uint256"
            },
            {
              "internalType": "string",
              "name": "name",
              "type": "string"
            }
          ],
          "internalType": "struct matches.Team",
          "name": "team1",
          "type": "tuple"
        },
        {
          "components": [
            {
              "internalType": "uint256",
              "name": "teamId",
              "type": "uint256"
            },
            {
              "internalType": "string",
              "name": "name",
              "type": "string"
            }
          ],
          "internalType": "struct matches.Team",
          "name": "team2",
          "type": "tuple"
        }
      ],
      "stateMutability": "view",
      "type": "function",
      "constant": true
    },
    {
      "inputs": [],
      "name": "getMatchIds",
      "outputs": [
        {
          "internalType": "uint256[]",
          "name": "",
          "type": "uint256[]"
        }
      ],
      "stateMutability": "view",
      "type": "function",
      "constant": true
    },
    {
      "inputs": [
        {
          "internalType": "uint256",
          "name": "_id",
          "type": "uint256"
        }
      ],
      "name": "getMatch",
      "outputs": [
        {
          "components": [
            {
              "internalType": "uint256",
              "name": "matchId",
              "type": "uint256"
            },
            {
              "internalType": "string",
              "name": "matchDesc",
              "type": "string"
            },
            {
              "internalType": "string",
              "name": "matchFormat",
              "type": "string"
            },
            {
              "internalType": "uint256",
              "name": "startDate",
              "type": "uint256"
            },
            {
              "internalType": "uint256",
              "name": "endDate",
              "type": "uint256"
            },
            {
              "components": [
                {
                  "internalType": "uint256",
                  "name": "teamId",
                  "type": "uint256"
                },
                {
                  "internalType": "string",
                  "name": "name",
                  "type": "string"
                }
              ],
              "internalType": "struct matches.Team",
              "name": "team1",
              "type": "tuple"
            },
            {
              "components": [
                {
                  "internalType": "uint256",
                  "name": "teamId",
                  "type": "uint256"
                },
                {
                  "internalType": "string",
                  "name": "name",
                  "type": "string"
                }
              ],
              "internalType": "struct matches.Team",
              "name": "team2",
              "type": "tuple"
            }
          ],
          "internalType": "struct matches.A_match",
          "name": "",
          "type": "tuple"
        }
      ],
      "stateMutability": "view",
      "type": "function",
      "constant": true
    },
    {
      "inputs": [
        {
          "internalType": "uint256",
          "name": "_id",
          "type": "uint256"
        }
      ],
      "name": "getResults",
      "outputs": [
        {
          "internalType": "uint256",
          "name": "",
          "type": "uint256"
        }
      ],
      "stateMutability": "view",
      "type": "function",
      "constant": true
    }
  ],
  "bytecode": "0x60806040523480156200001157600080fd5b506000604051806040016040528060b981526020016040518060400160405280600581526020017f496e64696100000000000000000000000000000000000000000000000000000081525081525090506000604051806040016040528061022c81526020016040518060400160405280600881526020017f50616b697374616e00000000000000000000000000000000000000000000000081525081525090506000604051806040016040528060e781526020016040518060400160405280600981526020017f4175737472616c6961000000000000000000000000000000000000000000000081525081525090506000604051806040016040528061020081526020016040518060400160405280600781526020017f456e676c616e640000000000000000000000000000000000000000000000000081525081525090506000604051806040016040528061014d81526020016040518060400160405280600b81526020017f536f7574684166726963610000000000000000000000000000000000000000008152508152509050600060405180604001604052806102d581526020016040518060400160405280600a81526020017f4e65775a65616c616e640000000000000000000000000000000000000000000081525081525090506000604051806040016040528060de81526020016040518060400160405280600a81526020017f42616e676c616465736800000000000000000000000000000000000000000000815250815250905060006040518060400160405280606f81526020016040518060400160405280600881526020017f5372694c616e6b61000000000000000000000000000000000000000000000000815250815250905060006040518060e00160405280600181526020016040518060400160405280600881526020017f317374205432304900000000000000000000000000000000000000000000000081525081526020016040518060400160405280600381526020017f54323000000000000000000000000000000000000000000000000000000000008152508152602001650184055b998081526020016501840600650081526020018a815260200189815250905060006040518060e00160405280600281526020016040518060400160405280600881526020017f326e64205432304900000000000000000000000000000000000000000000000081525081526020016040518060400160405280600381526020017f54323000000000000000000000000000000000000000000000000000000000008152508152602001650184055b9980815260200165018406006500815260200189815260200188815250905060006040518060e00160405280600381526020016040518060400160405280600881526020017f337264205432304900000000000000000000000000000000000000000000000081525081526020016040518060400160405280600381526020017f54323000000000000000000000000000000000000000000000000000000000008152508152602001650184055b9980815260200165018406006500815260200188815260200187815250905060006040518060e00160405280600481526020016040518060400160405280600881526020017f347468205432304900000000000000000000000000000000000000000000000081525081526020016040518060400160405280600381526020017f54323000000000000000000000000000000000000000000000000000000000008152508152602001650184055b998081526020016501840600650081526020018781526020018681525090508360016000600181526020019081526020016000206000820151816000015560208201518160010190816200057c919062000be0565b50604082015181600201908162000594919062000be0565b50606082015181600301556080820151816004015560a082015181600501600082015181600001556020820151816001019081620005d3919062000be0565b50505060c08201518160070160008201518160000155602082015181600101908162000600919062000be0565b5050509050508260016000600281526020019081526020016000206000820151816000015560208201518160010190816200063c919062000be0565b50604082015181600201908162000654919062000be0565b50606082015181600301556080820151816004015560a08201518160050160008201518160000155602082015181600101908162000693919062000be0565b50505060c082015181600701600082015181600001556020820151816001019081620006c0919062000be0565b505050905050816001600060038152602001908152602001600020600082015181600001556020820151816001019081620006fc919062000be0565b50604082015181600201908162000714919062000be0565b50606082015181600301556080820151816004015560a08201518160050160008201518160000155602082015181600101908162000753919062000be0565b50505060c08201518160070160008201518160000155602082015181600101908162000780919062000be0565b505050905050806001600060048152602001908152602001600020600082015181600001556020820151816001019081620007bc919062000be0565b506040820151816002019081620007d4919062000be0565b50606082015181600301556080820151816004015560a08201518160050160008201518160000155602082015181600101908162000813919062000be0565b50505060c08201518160070160008201518160000155602082015181600101908162000840919062000be0565b50505090505060016002600060018152602001908152602001600020819055506002806000600281526020019081526020016000208190555060016002600060038152602001908152602001600020819055506002806000600481526020019081526020016000208190555060006001908060018154018082558091505060019003906000526020600020016000909190919091505560006002908060018154018082558091505060019003906000526020600020016000909190919091505560006003908060018154018082558091505060019003906000526020600020016000909190919091505560006004908060018154018082558091505060019003906000526020600020016000909190919091505550505050505050505050505062000cc7565b600081519050919050565b7f4e487b7100000000000000000000000000000000000000000000000000000000600052604160045260246000fd5b7f4e487b7100000000000000000000000000000000000000000000000000000000600052602260045260246000fd5b60006002820490506001821680620009e857607f821691505b602082108103620009fe57620009fd620009a0565b5b50919050565b60008190508160005260206000209050919050565b60006020601f8301049050919050565b600082821b905092915050565b60006008830262000a687fffffffffffffffffffffffffffffffffffffffffffffffffffffffffffffffff8262000a29565b62000a74868362000a29565b95508019841693508086168417925050509392505050565b6000819050919050565b6000819050919050565b600062000ac162000abb62000ab58462000a8c565b62000a96565b62000a8c565b9050919050565b6000819050919050565b62000add8362000aa0565b62000af562000aec8262000ac8565b84845462000a36565b825550505050565b600090565b62000b0c62000afd565b62000b1981848462000ad2565b505050565b5b8181101562000b415762000b3560008262000b02565b60018101905062000b1f565b5050565b601f82111562000b905762000b5a8162000a04565b62000b658462000a19565b8101602085101562000b75578190505b62000b8d62000b848562000a19565b83018262000b1e565b50505b505050565b600082821c905092915050565b600062000bb56000198460080262000b95565b1980831691505092915050565b600062000bd0838362000ba2565b9150826002028217905092915050565b62000beb8262000966565b67ffffffffffffffff81111562000c075762000c0662000971565b5b62000c138254620009cf565b62000c2082828562000b45565b600060209050601f83116001811462000c58576000841562000c43578287015190505b62000c4f858262000bc2565b86555062000cbf565b601f19841662000c688662000a04565b60005b8281101562000c925784890151825560018201915060208501945060208101905062000c6b565b8683101562000cb2578489015162000cae601f89168262000ba2565b8355505b6001600288020188555050505b505050505050565b610cb68062000cd76000396000f3fe608060405234801561001057600080fd5b50600436106100625760003560e01c80631b0c27da146100675780632343fb901461009757806336ff6a70146100b55780633d092b3d146100e55780636fbfd4091461011557806381a60c0d1461014b575b600080fd5b610081600480360381019061007c9190610837565b61017b565b60405161008e9190610873565b60405180910390f35b61009f610193565b6040516100ac919061094c565b60405180910390f35b6100cf60048036038101906100ca9190610837565b6101eb565b6040516100dc9190610873565b60405180910390f35b6100ff60048036038101906100fa9190610837565b61020f565b60405161010c9190610aec565b60405180910390f35b61012f600480360381019061012a9190610837565b6104de565b6040516101429796959493929190610b95565b60405180910390f35b61016560048036038101906101609190610837565b61077c565b6040516101729190610873565b60405180910390f35b60026020528060005260406000206000915090505481565b606060008054806020026020016040519081016040528092919081815260200182805480156101e157602002820191906000526020600020905b8154815260200190600101908083116101cd575b5050505050905090565b600081815481106101fb57600080fd5b906000526020600020016000915090505481565b610217610799565b600160008381526020019081526020016000206040518060e00160405290816000820154815260200160018201805461024f90610c4f565b80601f016020809104026020016040519081016040528092919081815260200182805461027b90610c4f565b80156102c85780601f1061029d576101008083540402835291602001916102c8565b820191906000526020600020905b8154815290600101906020018083116102ab57829003601f168201915b505050505081526020016002820180546102e190610c4f565b80601f016020809104026020016040519081016040528092919081815260200182805461030d90610c4f565b801561035a5780601f1061032f5761010080835404028352916020019161035a565b820191906000526020600020905b81548152906001019060200180831161033d57829003601f168201915b50505050508152602001600382015481526020016004820154815260200160058201604051806040016040529081600082015481526020016001820180546103a190610c4f565b80601f01602080910402602001604051908101604052809291908181526020018280546103cd90610c4f565b801561041a5780601f106103ef5761010080835404028352916020019161041a565b820191906000526020600020905b8154815290600101906020018083116103fd57829003601f168201915b5050505050815250508152602001600782016040518060400160405290816000820154815260200160018201805461045190610c4f565b80601f016020809104026020016040519081016040528092919081815260200182805461047d90610c4f565b80156104ca5780601f1061049f576101008083540402835291602001916104ca565b820191906000526020600020905b8154815290600101906020018083116104ad57829003601f168201915b505050505081525050815250509050919050565b600160205280600052604060002060009150905080600001549080600101805461050790610c4f565b80601f016020809104026020016040519081016040528092919081815260200182805461053390610c4f565b80156105805780601f1061055557610100808354040283529160200191610580565b820191906000526020600020905b81548152906001019060200180831161056357829003601f168201915b50505050509080600201805461059590610c4f565b80601f01602080910402602001604051908101604052809291908181526020018280546105c190610c4f565b801561060e5780601f106105e35761010080835404028352916020019161060e565b820191906000526020600020905b8154815290600101906020018083116105f157829003601f168201915b505050505090806003015490806004015490806005016040518060400160405290816000820154815260200160018201805461064990610c4f565b80601f016020809104026020016040519081016040528092919081815260200182805461067590610c4f565b80156106c25780601f10610697576101008083540402835291602001916106c2565b820191906000526020600020905b8154815290600101906020018083116106a557829003601f168201915b5050505050815250509080600701604051806040016040529081600082015481526020016001820180546106f590610c4f565b80601f016020809104026020016040519081016040528092919081815260200182805461072190610c4f565b801561076e5780601f106107435761010080835404028352916020019161076e565b820191906000526020600020905b81548152906001019060200180831161075157829003601f168201915b505050505081525050905087565b600060026000838152602001908152602001600020549050919050565b6040518060e0016040528060008152602001606081526020016060815260200160008152602001600081526020016107cf6107e2565b81526020016107dc6107e2565b81525090565b604051806040016040528060008152602001606081525090565b600080fd5b6000819050919050565b61081481610801565b811461081f57600080fd5b50565b6000813590506108318161080b565b92915050565b60006020828403121561084d5761084c6107fc565b5b600061085b84828501610822565b91505092915050565b61086d81610801565b82525050565b60006020820190506108886000830184610864565b92915050565b600081519050919050565b600082825260208201905092915050565b6000819050602082019050919050565b6108c381610801565b82525050565b60006108d583836108ba565b60208301905092915050565b6000602082019050919050565b60006108f98261088e565b6109038185610899565b935061090e836108aa565b8060005b8381101561093f57815161092688826108c9565b9750610931836108e1565b925050600181019050610912565b5085935050505092915050565b6000602082019050818103600083015261096681846108ee565b905092915050565b600081519050919050565b600082825260208201905092915050565b60005b838110156109a857808201518184015260208101905061098d565b60008484015250505050565b6000601f19601f8301169050919050565b60006109d08261096e565b6109da8185610979565b93506109ea81856020860161098a565b6109f3816109b4565b840191505092915050565b6000604083016000830151610a1660008601826108ba565b5060208301518482036020860152610a2e82826109c5565b9150508091505092915050565b600060e083016000830151610a5360008601826108ba565b5060208301518482036020860152610a6b82826109c5565b91505060408301518482036040860152610a8582826109c5565b9150506060830151610a9a60608601826108ba565b506080830151610aad60808601826108ba565b5060a083015184820360a0860152610ac582826109fe565b91505060c083015184820360c0860152610adf82826109fe565b9150508091505092915050565b60006020820190508181036000830152610b068184610a3b565b905092915050565b600082825260208201905092915050565b6000610b2a8261096e565b610b348185610b0e565b9350610b4481856020860161098a565b610b4d816109b4565b840191505092915050565b6000604083016000830151610b7060008601826108ba565b5060208301518482036020860152610b8882826109c5565b9150508091505092915050565b600060e082019050610baa600083018a610864565b8181036020830152610bbc8189610b1f565b90508181036040830152610bd08188610b1f565b9050610bdf6060830187610864565b610bec6080830186610864565b81810360a0830152610bfe8185610b58565b905081810360c0830152610c128184610b58565b905098975050505050505050565b7f4e487b7100000000000000000000000000000000000000000000000000000000600052602260045260246000fd5b60006002820490506001821680610c6757607f821691505b602082108103610c7a57610c79610c20565b5b5091905056fea26469706673582212204ec0e671fd53b1b4d8ac64b62c8260fea4e9feda0e44a45e6440172db1fbbc4e64736f6c63430008110033",
  "immutableReferences": {},
  "source": "//SPDX-License-Identifier: MIT\npragma solidity 0.8.17;\n\ncontract bet {\n    // uint256 constant minimumbet = 0.004;\n    uint256 constant minimumBet = 4000000000000000;\n\n    struct Bet {\n        uint256 matchId;\n        address player;\n        uint256 amount;\n        uint256 prediction;\n        uint256 bet_time;\n    }\n\n    struct MatchBet {\n        uint256 matchId;\n        uint256 totalCount;\n        uint256 total_amount;\n        uint256 total_team1_win;\n        uint256 total_team1_amount;\n        uint256 total_team2_win;\n        uint256 total_team2_amount;\n        uint256 total_tie;\n        uint256 total_tie_amount;\n        mapping(address => Bet) bets;\n        mapping(address => bool) players;\n    }\n\n    // keeping track of price distribution\n    mapping(uint256 => mapping(address => bool)) availedPrice;\n    mapping(address => bool) availedList;\n    // address [] availedList;\n\n    // storing all match bet detials\n    mapping(uint256 => MatchBet) allBets;\n    mapping(uint256 => bool) startedBet;\n    uint256 total_games = 0;\n\n    matches game = new matches();\n\n    // checks if player had already bet on given match\n    function alreadyBet(uint256 matchId, address user)\n        public\n        view\n        returns (bool)\n    {\n        return allBets[matchId].players[user];\n    }\n\n    function betOnMatch(uint256 matchId,uint256 amount,uint256 prediction,uint256 timestamp) public payable {\n        require(!allBets[matchId].players[msg.sender],\"you have alredy placed a bet on this match\");\n        require(amount==msg.value,\"Error From Backend\");\n        require(amount >= minimumBet,\"Please send atleast minimum amount to bet\"); // ether in wei\n        allBets[matchId].players[msg.sender]=true;\n        Bet memory bet1 = Bet(matchId,msg.sender,amount,prediction,timestamp);\n\n        // first bet on a match\n        if (!startedBet[matchId]) {\n            startedBet[matchId] = true;\n            total_games++;\n\n            MatchBet storage match1 = allBets[matchId];\n\n            match1.matchId = matchId;\n            match1.totalCount = 1;\n            match1.bets[msg.sender] = bet1;\n            match1.players[msg.sender] = true;\n            match1.total_amount = amount;\n\n            if (prediction == 1) {\n                match1.total_team1_win = 1;\n                match1.total_team1_amount = amount;\n                match1.total_team2_win = 0;\n                match1.total_team2_amount = 0;\n                match1.total_tie = 0;\n                match1.total_tie_amount = 0;\n            } else if (prediction == 2) {\n                match1.total_team1_win = 0;\n                match1.total_team1_amount = 0;\n                match1.total_team2_win = 1;\n                match1.total_team2_amount = amount;\n                match1.total_tie = 0;\n                match1.total_tie_amount = 0;\n            } else if (prediction == 0) {\n                match1.total_team1_win = 0;\n                match1.total_team1_amount = 0;\n                match1.total_team2_win = 0;\n                match1.total_team2_amount = 0;\n                match1.total_tie = 1;\n                match1.total_tie_amount = amount;\n            }\n        } else {\n            MatchBet storage match2;\n            match2 = allBets[matchId];\n\n            if (matchId == match2.matchId) {\n                match2.totalCount += 1;\n                match2.bets[msg.sender] = bet1;\n                match2.players[msg.sender] = true;\n                match2.total_amount += amount;\n\n                if (prediction == 1) {\n                    match2.total_team1_win += 1;\n                    match2.total_team1_amount += amount;\n                } else if (prediction == 2) {\n                    match2.total_team2_win += 1;\n                    match2.total_team2_amount += amount;\n                } else if (prediction == 0) {\n                    match2.total_tie += 1;\n                    match2.total_tie_amount += amount;\n                }\n            }\n        }\n    }\n\n    // rerturns a particular bet details\n    function getBetDetails(uint256 matchId, address user)\n        public\n        view\n        returns (Bet memory)\n    {\n        Bet memory userBet = allBets[matchId].bets[user];\n\n        return userBet;\n    }\n\n    // function exists(address [] memory list, address user) public view returns(bool){\n    //     for(uint i; i<=list.length; i++){\n    //         if(list[i] == user){\n    //             return true;\n    //         }\n    //     }\n    //     return false;\n\n    function availPrice(uint256 matchId) public payable {\n        require(\n            allBets[matchId].players[msg.sender],\n            \"you have not placed a bet on this match\"\n        );\n        require(\n            allBets[matchId].bets[msg.sender].prediction ==\n                game.getResults(matchId),\n            \"you lost your money\"\n        );\n\n        require(\n            !availedPrice[matchId][msg.sender],\n            \"you have already availed price for this match\"\n        );\n\n        Bet memory userBet = getBetDetails(matchId, msg.sender);\n        MatchBet storage m = allBets[matchId];\n        uint256 price;\n\n        if (userBet.prediction == 1&& userBet.prediction == game.getResults(matchId)) {\n            price = (((userBet.amount*1000000000000000000) / m.total_team1_amount) * m.total_amount)/(1 ether);\n        } else if ((userBet.prediction) == 2 && userBet.prediction == game.getResults(matchId)) {\n            price = (((userBet.amount*1000000000000000000) / m.total_team2_amount) * m.total_amount)/(1 ether);\n        } else if (userBet.prediction == 0 && userBet.prediction == game.getResults(matchId)) {\n            price = (((userBet.amount*1000000000000000000) / m.total_tie_amount) * m.total_amount)/(1 ether);\n        }\n        availedPrice[matchId][msg.sender]=true;\n        sendPrice(payable(msg.sender), price);\n    }\n    function sendPrice(address payable user, uint256 price) public payable {\n        user.transfer(price);\n    }\n\n    // function getBets(uint256 matchId) public view returns(mapping(address => Bet) memory){\n    //     return allBets[matchId].bets;\n    // }\n\n    // function getMatchDetail(uint256 matchId) public view {\n    //     return allBets[matchId];\n    // }\n}\n\ncontract matches {\n    uint256[] public matchIds;\n\n    struct Team {\n        uint256 teamId;\n        string name;\n    }\n    struct A_match {\n        uint256 matchId;\n        string matchDesc;\n        string matchFormat;\n        uint256 startDate;\n        uint256 endDate;\n        Team team1;\n        Team team2;\n    }\n\n    struct Res {\n        uint256 matchId;\n        uint256 result;\n    }\n\n    mapping(uint256 => A_match) public schedule;\n    mapping(uint256 => uint256) public results;\n\n    constructor() {\n        Team memory team1 = Team(185, \"India\");\n        Team memory team2 = Team(556, \"Pakistan\");\n        Team memory team3 = Team(231, \"Australia\");\n        Team memory team4 = Team(512, \"England\");\n        Team memory team5 = Team(333, \"SouthAfrica\");\n        Team memory team6 = Team(725, \"NewZealand\");\n        Team memory team7 = Team(222, \"Bangladesh\");\n        Team memory team8 = Team(111, \"SriLanka\");\n        A_match memory match1 = A_match(\n            1,\n            \"1st T20I\",\n            \"T20\",\n            1666537200000,\n            1666548000000,\n            team1,\n            team2\n        );\n\n        // match 2 details\n        A_match memory match2 = A_match(\n            2,\n            \"2nd T20I\",\n            \"T20\",\n            1666537200000,\n            1666548000000,\n            team3,\n            team4\n        );\n        A_match memory match3 = A_match(\n            3,\n            \"3rd T20I\",\n            \"T20\",\n            1666537200000,\n            1666548000000,\n            team5,\n            team6\n        );\n        A_match memory match4 = A_match(\n            4,\n            \"4th T20I\",\n            \"T20\",\n            1666537200000,\n            1666548000000,\n            team7,\n            team8\n        );\n\n        schedule[1] = match1;\n        schedule[2] = match2;\n        schedule[3] = match3;\n        schedule[4] = match4;\n        \n        results[1] = 1;\n        results[2] = 2;\n        results[3] = 1;\n        results[4] = 2;\n\n        matchIds.push(1);\n        matchIds.push(2);\n        matchIds.push(3);\n        matchIds.push(4);\n    }\n\n    function getMatchIds() external view returns (uint256[] memory) {\n        return matchIds;\n    }\n\n    function getMatch(uint256 _id) external view returns (A_match memory) {\n        return schedule[_id];\n    }\n\n    function getResults(uint256 _id) external view returns (uint256) {\n        return results[_id];\n    }\n}\n",
  "sourcePath": "D:\\blockchain\\Cricket-betting-Dapp-master\\contracts\\bet.sol",
  "compiler": {
    "name": "solc",
    "version": "0.8.17+commit.8df45f5f.Emscripten.clang"
  },
  "schemaVersion": "3.4.11",
  "updatedAt": "2022-12-03T11:05:45.273Z",
  "networkType": "ethereum",
  "devdoc": {
    "kind": "dev",
    "methods": {},
    "version": 1
  },
  "userdoc": {
    "kind": "user",
    "methods": {},
    "version": 1
  }
}